{
  "_format": "hh-sol-artifact-1",
  "contractName": "WavePortal",
  "sourceName": "contracts/WavePortal.sol",
  "abi": [
    {
      "inputs": [],
      "stateMutability": "payable",
      "type": "constructor"
    },
    {
      "anonymous": false,
      "inputs": [
        {
          "indexed": true,
          "internalType": "address",
          "name": "from",
          "type": "address"
        },
        {
          "indexed": false,
          "internalType": "uint256",
          "name": "timestamp",
          "type": "uint256"
        },
        {
          "indexed": false,
          "internalType": "string",
          "name": "message",
          "type": "string"
        }
      ],
      "name": "NewWave",
      "type": "event"
    },
    {
      "inputs": [],
      "name": "getAllWaves",
      "outputs": [
        {
          "components": [
            {
              "internalType": "address",
              "name": "waver",
              "type": "address"
            },
            {
              "internalType": "string",
              "name": "message",
              "type": "string"
            },
            {
              "internalType": "uint256",
              "name": "timestamp",
              "type": "uint256"
            }
          ],
          "internalType": "struct WavePortal.Wave[]",
          "name": "",
          "type": "tuple[]"
        }
      ],
      "stateMutability": "view",
      "type": "function"
    },
    {
      "inputs": [],
      "name": "getTotalWaves",
      "outputs": [
        {
          "internalType": "uint256",
          "name": "",
          "type": "uint256"
        }
      ],
      "stateMutability": "view",
      "type": "function"
    },
    {
      "inputs": [
        {
          "internalType": "address",
          "name": "",
          "type": "address"
        }
      ],
      "name": "lastWavedAt",
      "outputs": [
        {
          "internalType": "uint256",
          "name": "",
          "type": "uint256"
        }
      ],
      "stateMutability": "view",
      "type": "function"
    },
    {
      "inputs": [
        {
          "internalType": "string",
          "name": "_message",
          "type": "string"
        }
      ],
      "name": "wave",
      "outputs": [],
      "stateMutability": "nonpayable",
      "type": "function"
    }
  ],
  "bytecode": "0x60806040526200004f6040518060400160405280601981526020017f57652068617665206265656e20636f6e737472756374656421000000000000008152506200007760201b620006cd1760201c565b606444426200005f9190620001c4565b6200006b919062000261565b60018190555062000308565b62000117816040516024016200008e919062000184565b6040516020818303038152906040527f41304fac000000000000000000000000000000000000000000000000000000007bffffffffffffffffffffffffffffffffffffffffffffffffffffffff19166020820180517bffffffffffffffffffffffffffffffffffffffffffffffffffffffff83818316178352505050506200011a60201b60201c565b50565b60008151905060006a636f6e736f6c652e6c6f679050602083016000808483855afa5050505050565b60006200015082620001a8565b6200015c8185620001b3565b93506200016e8185602086016200022b565b6200017981620002f7565b840191505092915050565b60006020820190508181036000830152620001a0818462000143565b905092915050565b600081519050919050565b600082825260208201905092915050565b6000620001d18262000221565b9150620001de8362000221565b9250827fffffffffffffffffffffffffffffffffffffffffffffffffffffffffffffffff0382111562000216576200021562000299565b5b828201905092915050565b6000819050919050565b60005b838110156200024b5780820151818401526020810190506200022e565b838111156200025b576000848401525b50505050565b60006200026e8262000221565b91506200027b8362000221565b9250826200028e576200028d620002c8565b5b828206905092915050565b7f4e487b7100000000000000000000000000000000000000000000000000000000600052601160045260246000fd5b7f4e487b7100000000000000000000000000000000000000000000000000000000600052601260045260246000fd5b6000601f19601f8301169050919050565b6112bf80620003186000396000f3fe608060405234801561001057600080fd5b506004361061004c5760003560e01c8063449d46c0146100515780639a2cdc081461006d578063a42a46631461008b578063bd43a908146100bb575b600080fd5b61006b60048036038101906100669190610aaf565b6100d9565b005b610075610519565b6040516100829190610e61565b60405180910390f35b6100a560048036038101906100a09190610a86565b610564565b6040516100b29190610e61565b60405180910390f35b6100c361057c565b6040516100d09190610d18565b60405180910390f35b42610384600360003373ffffffffffffffffffffffffffffffffffffffff1673ffffffffffffffffffffffffffffffffffffffff168152602001908152602001600020546101279190610f73565b10610167576040517f08c379a000000000000000000000000000000000000000000000000000000000815260040161015e90610e41565b60405180910390fd5b42600360003373ffffffffffffffffffffffffffffffffffffffff1673ffffffffffffffffffffffffffffffffffffffff1681526020019081526020016000208190555060016000808282546101bd9190610f73565b925050819055506102046040518060400160405280601681526020017f257320776176656420772f206d657373616765202573000000000000000000008152503383610766565b600260405180606001604052803373ffffffffffffffffffffffffffffffffffffffff16815260200183815260200142815250908060018154018082558091505060019003906000526020600020906003020160009091909190915060008201518160000160006101000a81548173ffffffffffffffffffffffffffffffffffffffff021916908373ffffffffffffffffffffffffffffffffffffffff16021790555060208201518160010190805190602001906102c3929190610966565b50604082015181600201555050606460015442446102e19190610f73565b6102eb9190610f73565b6102f591906110aa565b60018190555061033c6040518060400160405280601681526020017f52616e646f6d20232067656e6572617465643a20256400000000000000000000815250600154610805565b603260015411610486576103856040518060400160405280600781526020017f257320776f6e2100000000000000000000000000000000000000000000000000815250336108a1565b6000655af3107a40009050478111156103d3576040517f08c379a00000000000000000000000000000000000000000000000000000000081526004016103ca90610e01565b60405180910390fd5b60003373ffffffffffffffffffffffffffffffffffffffff16826040516103f990610d03565b60006040518083038185875af1925050503d8060008114610436576040519150601f19603f3d011682016040523d82523d6000602084013e61043b565b606091505b505090508061047f576040517f08c379a000000000000000000000000000000000000000000000000000000000815260040161047690610e21565b60405180910390fd5b50506104c6565b6104c56040518060400160405280600f81526020017f257320646964206e6f742077696e2e0000000000000000000000000000000000815250336108a1565b5b3373ffffffffffffffffffffffffffffffffffffffff167f5f7e16dc676677766a70e9c5628aa6c54ddb8b6e5188e2ae1e1f17f1ffbea716428360405161050e929190610e7c565b60405180910390a250565b600061055c6040518060400160405280601781526020017f5765206861766520256420746f74616c20776176657321000000000000000000815250600054610805565b600054905090565b60036020528060005260406000206000915090505481565b60606002805480602002602001604051908101604052809291908181526020016000905b828210156106c457838290600052602060002090600302016040518060600160405290816000820160009054906101000a900473ffffffffffffffffffffffffffffffffffffffff1673ffffffffffffffffffffffffffffffffffffffff1673ffffffffffffffffffffffffffffffffffffffff16815260200160018201805461062990611047565b80601f016020809104026020016040519081016040528092919081815260200182805461065590611047565b80156106a25780601f10610677576101008083540402835291602001916106a2565b820191906000526020600020905b81548152906001019060200180831161068557829003601f168201915b50505050508152602001600282015481525050815260200190600101906105a0565b50505050905090565b610763816040516024016106e19190610d3a565b6040516020818303038152906040527f41304fac000000000000000000000000000000000000000000000000000000007bffffffffffffffffffffffffffffffffffffffffffffffffffffffff19166020820180517bffffffffffffffffffffffffffffffffffffffffffffffffffffffff838183161783525050505061093d565b50565b61080083838360405160240161077e93929190610d8c565b6040516020818303038152906040527fe0e9ad4f000000000000000000000000000000000000000000000000000000007bffffffffffffffffffffffffffffffffffffffffffffffffffffffff19166020820180517bffffffffffffffffffffffffffffffffffffffffffffffffffffffff838183161783525050505061093d565b505050565b61089d828260405160240161081b929190610dd1565b6040516020818303038152906040527f9710a9d0000000000000000000000000000000000000000000000000000000007bffffffffffffffffffffffffffffffffffffffffffffffffffffffff19166020820180517bffffffffffffffffffffffffffffffffffffffffffffffffffffffff838183161783525050505061093d565b5050565b61093982826040516024016108b7929190610d5c565b6040516020818303038152906040527f319af333000000000000000000000000000000000000000000000000000000007bffffffffffffffffffffffffffffffffffffffffffffffffffffffff19166020820180517bffffffffffffffffffffffffffffffffffffffffffffffffffffffff838183161783525050505061093d565b5050565b60008151905060006a636f6e736f6c652e6c6f679050602083016000808483855afa5050505050565b82805461097290611047565b90600052602060002090601f01602090048101928261099457600085556109db565b82601f106109ad57805160ff19168380011785556109db565b828001600101855582156109db579182015b828111156109da5782518255916020019190600101906109bf565b5b5090506109e891906109ec565b5090565b5b80821115610a055760008160009055506001016109ed565b5090565b6000610a1c610a1784610ed1565b610eac565b905082815260208101848484011115610a3457600080fd5b610a3f848285611005565b509392505050565b600081359050610a5681611272565b92915050565b600082601f830112610a6d57600080fd5b8135610a7d848260208601610a09565b91505092915050565b600060208284031215610a9857600080fd5b6000610aa684828501610a47565b91505092915050565b600060208284031215610ac157600080fd5b600082013567ffffffffffffffff811115610adb57600080fd5b610ae784828501610a5c565b91505092915050565b6000610afc8383610c95565b905092915050565b610b0d81610fc9565b82525050565b610b1c81610fc9565b82525050565b6000610b2d82610f12565b610b378185610f35565b935083602082028501610b4985610f02565b8060005b85811015610b855784840389528151610b668582610af0565b9450610b7183610f28565b925060208a01995050600181019050610b4d565b50829750879550505050505092915050565b6000610ba282610f1d565b610bac8185610f51565b9350610bbc818560208601611014565b610bc581611197565b840191505092915050565b6000610bdb82610f1d565b610be58185610f62565b9350610bf5818560208601611014565b610bfe81611197565b840191505092915050565b6000610c16603483610f62565b9150610c21826111a8565b604082019050919050565b6000610c39602783610f62565b9150610c44826111f7565b604082019050919050565b6000610c5c600083610f46565b9150610c6782611246565b600082019050919050565b6000610c7f600883610f62565b9150610c8a82611249565b602082019050919050565b6000606083016000830151610cad6000860182610b04565b5060208301518482036020860152610cc58282610b97565b9150506040830151610cda6040860182610ce5565b508091505092915050565b610cee81610ffb565b82525050565b610cfd81610ffb565b82525050565b6000610d0e82610c4f565b9150819050919050565b60006020820190508181036000830152610d328184610b22565b905092915050565b60006020820190508181036000830152610d548184610bd0565b905092915050565b60006040820190508181036000830152610d768185610bd0565b9050610d856020830184610b13565b9392505050565b60006060820190508181036000830152610da68186610bd0565b9050610db56020830185610b13565b8181036040830152610dc78184610bd0565b9050949350505050565b60006040820190508181036000830152610deb8185610bd0565b9050610dfa6020830184610cf4565b9392505050565b60006020820190508181036000830152610e1a81610c09565b9050919050565b60006020820190508181036000830152610e3a81610c2c565b9050919050565b60006020820190508181036000830152610e5a81610c72565b9050919050565b6000602082019050610e766000830184610cf4565b92915050565b6000604082019050610e916000830185610cf4565b8181036020830152610ea38184610bd0565b90509392505050565b6000610eb6610ec7565b9050610ec28282611079565b919050565b6000604051905090565b600067ffffffffffffffff821115610eec57610eeb611168565b5b610ef582611197565b9050602081019050919050565b6000819050602082019050919050565b600081519050919050565b600081519050919050565b6000602082019050919050565b600082825260208201905092915050565b600081905092915050565b600082825260208201905092915050565b600082825260208201905092915050565b6000610f7e82610ffb565b9150610f8983610ffb565b9250827fffffffffffffffffffffffffffffffffffffffffffffffffffffffffffffffff03821115610fbe57610fbd6110db565b5b828201905092915050565b6000610fd482610fdb565b9050919050565b600073ffffffffffffffffffffffffffffffffffffffff82169050919050565b6000819050919050565b82818337600083830152505050565b60005b83811015611032578082015181840152602081019050611017565b83811115611041576000848401525b50505050565b6000600282049050600182168061105f57607f821691505b6020821081141561107357611072611139565b5b50919050565b61108282611197565b810181811067ffffffffffffffff821117156110a1576110a0611168565b5b80604052505050565b60006110b582610ffb565b91506110c083610ffb565b9250826110d0576110cf61110a565b5b828206905092915050565b7f4e487b7100000000000000000000000000000000000000000000000000000000600052601160045260246000fd5b7f4e487b7100000000000000000000000000000000000000000000000000000000600052601260045260246000fd5b7f4e487b7100000000000000000000000000000000000000000000000000000000600052602260045260246000fd5b7f4e487b7100000000000000000000000000000000000000000000000000000000600052604160045260246000fd5b6000601f19601f8301169050919050565b7f547279696e6720746f207769746864726177206d6f7265206d6f6e657920746860008201527f616e2074686520636f6e7472616374206861732e000000000000000000000000602082015250565b7f4661696c656420746f207769746864726177206d6f6e65792066726f6d20636f60008201527f6e74726163742e00000000000000000000000000000000000000000000000000602082015250565b50565b7f576169742031356d000000000000000000000000000000000000000000000000600082015250565b61127b81610fc9565b811461128657600080fd5b5056fea26469706673582212200dfdb82afac2594b4601ad1cf8108c70682637ca7e23fc1ce88dc5c56fd333fb64736f6c63430008040033",
  "linkReferences": {},
  "deployedLinkReferences": {}
}